{
  "_format": "hh-sol-artifact-1",
  "contractName": "FHEPoll",
  "sourceName": "contracts/FHEPoll.sol",
  "abi": [
    {
      "inputs": [
        {
          "internalType": "externalEuint32",
          "name": "voteEuint",
          "type": "bytes32"
        },
        {
          "internalType": "bytes",
          "name": "voteProof",
          "type": "bytes"
        }
      ],
      "name": "castVote",
      "outputs": [],
      "stateMutability": "nonpayable",
      "type": "function"
    },
    {
      "inputs": [],
      "name": "getSum",
      "outputs": [
        {
          "internalType": "euint32",
          "name": "",
          "type": "bytes32"
        }
      ],
      "stateMutability": "view",
      "type": "function"
    },
    {
      "inputs": [],
      "name": "protocolId",
      "outputs": [
        {
          "internalType": "uint256",
          "name": "",
          "type": "uint256"
        }
      ],
      "stateMutability": "pure",
      "type": "function"
    }
  ],
  "bytecode": "0x608060405234801561001057600080fd5b5061002d61002261003260201b60201c565b61010860201b60201c565b6102f4565b61003a610274565b60405180608001604052807350157cffd6bbfa2dece204a89ec419c23ef5755d73ffffffffffffffffffffffffffffffffffffffff16815260200173cd3ab3bd6bcc0c0bf3e27912a92043e817b1cf6973ffffffffffffffffffffffffffffffffffffffff16815260200173a02cda4ca3a71d7c46997716f4283aa851c2881273ffffffffffffffffffffffffffffffffffffffff168152602001731364cbbf2cdf5032c47d8226a6f6fbd2afcdacac73ffffffffffffffffffffffffffffffffffffffff16815250905090565b6101178161011a60201b60201c565b50565b600061012a61024c60201b60201c565b905081600001518160000160006101000a81548173ffffffffffffffffffffffffffffffffffffffff021916908373ffffffffffffffffffffffffffffffffffffffff16021790555081602001518160010160006101000a81548173ffffffffffffffffffffffffffffffffffffffff021916908373ffffffffffffffffffffffffffffffffffffffff16021790555081604001518160020160006101000a81548173ffffffffffffffffffffffffffffffffffffffff021916908373ffffffffffffffffffffffffffffffffffffffff16021790555081606001518160030160006101000a81548173ffffffffffffffffffffffffffffffffffffffff021916908373ffffffffffffffffffffffffffffffffffffffff1602179055505050565b60007f9e7b61f58c47dc699ac88507c4f5bb9f121c03808c5676a8078fe583e4649700905090565b6040518060800160405280600073ffffffffffffffffffffffffffffffffffffffff168152602001600073ffffffffffffffffffffffffffffffffffffffff168152602001600073ffffffffffffffffffffffffffffffffffffffff168152602001600073ffffffffffffffffffffffffffffffffffffffff1681525090565b610a09806103036000396000f3fe608060405234801561001057600080fd5b50600436106100415760003560e01c80633a41069c14610046578063569c5f6d14610062578063da1f12ab14610080575b600080fd5b610060600480360381019061005b9190610643565b61009e565b005b61006a610121565b60405161007791906106c4565b60405180910390f35b61008861012a565b60405161009591906106f8565b60405180910390f35b60006100ee8484848080601f016020809104026020016040519081016040528093929190818152602001838380828437600081840152601f19601f82011690508083019250505050505050610139565b90506100fc6000548261014f565b60008190555061010d600054610199565b5061011a600054336101ad565b5050505050565b60008054905090565b60006101346101c2565b905090565b6000610147838360046101cc565b905092915050565b600061015a8361031a565b61016b57610168600061032a565b92505b6101748261031a565b61018557610182600061032a565b91505b61019183836000610344565b905092915050565b60006101a5823061041c565b819050919050565b60006101b9838361041c565b82905092915050565b6000612711905090565b6000806101d76104be565b90508060010160009054906101000a900473ffffffffffffffffffffffffffffffffffffffff1673ffffffffffffffffffffffffffffffffffffffff1663196d0b9b863387876040518563ffffffff1660e01b815260040161023c949392919061086a565b6020604051808303816000875af115801561025b573d6000803e3d6000fd5b505050506040513d601f19601f8201168201806040525081019061027f91906108e2565b91508060000160009054906101000a900473ffffffffffffffffffffffffffffffffffffffff1673ffffffffffffffffffffffffffffffffffffffff16633e395cec83336040518363ffffffff1660e01b81526004016102e092919061090f565b600060405180830381600087803b1580156102fa57600080fd5b505af115801561030e573d6000803e3d6000fd5b50505050509392505050565b60008060001b8214159050919050565b600061033d8263ffffffff1660046104e6565b9050919050565b600080821561035957600160f81b9050610361565b600060f81b90505b600061036b6104be565b90508060010160009054906101000a900473ffffffffffffffffffffffffffffffffffffffff1673ffffffffffffffffffffffffffffffffffffffff1663117b2f388787856040518463ffffffff1660e01b81526004016103ce93929190610973565b6020604051808303816000875af11580156103ed573d6000803e3d6000fd5b505050506040513d601f19601f8201168201806040525081019061041191906108e2565b925050509392505050565b60006104266104be565b90508060000160009054906101000a900473ffffffffffffffffffffffffffffffffffffffff1673ffffffffffffffffffffffffffffffffffffffff1663b9496b6284846040518363ffffffff1660e01b815260040161048792919061090f565b600060405180830381600087803b1580156104a157600080fd5b505af11580156104b5573d6000803e3d6000fd5b50505050505050565b60007f9e7b61f58c47dc699ac88507c4f5bb9f121c03808c5676a8078fe583e4649700905090565b6000806104f16104be565b90508060010160009054906101000a900473ffffffffffffffffffffffffffffffffffffffff1673ffffffffffffffffffffffffffffffffffffffff16639cd07acb85856040518363ffffffff1660e01b81526004016105529291906109aa565b6020604051808303816000875af1158015610571573d6000803e3d6000fd5b505050506040513d601f19601f8201168201806040525081019061059591906108e2565b91505092915050565b600080fd5b600080fd5b6000819050919050565b6105bb816105a8565b81146105c657600080fd5b50565b6000813590506105d8816105b2565b92915050565b600080fd5b600080fd5b600080fd5b60008083601f840112610603576106026105de565b5b8235905067ffffffffffffffff8111156106205761061f6105e3565b5b60208301915083600182028301111561063c5761063b6105e8565b5b9250929050565b60008060006040848603121561065c5761065b61059e565b5b600061066a868287016105c9565b935050602084013567ffffffffffffffff81111561068b5761068a6105a3565b5b610697868287016105ed565b92509250509250925092565b60006106ae826105a8565b9050919050565b6106be816106a3565b82525050565b60006020820190506106d960008301846106b5565b92915050565b6000819050919050565b6106f2816106df565b82525050565b600060208201905061070d60008301846106e9565b92915050565b61071c816105a8565b82525050565b600073ffffffffffffffffffffffffffffffffffffffff82169050919050565b600061074d82610722565b9050919050565b61075d81610742565b82525050565b600081519050919050565b600082825260208201905092915050565b60005b8381101561079d578082015181840152602081019050610782565b60008484015250505050565b6000601f19601f8301169050919050565b60006107c582610763565b6107cf818561076e565b93506107df81856020860161077f565b6107e8816107a9565b840191505092915050565b7f4e487b7100000000000000000000000000000000000000000000000000000000600052602160045260246000fd5b60548110610833576108326107f3565b5b50565b600081905061084482610822565b919050565b600061085482610836565b9050919050565b61086481610849565b82525050565b600060808201905061087f6000830187610713565b61088c6020830186610754565b818103604083015261089e81856107ba565b90506108ad606083018461085b565b95945050505050565b6108bf816105a8565b81146108ca57600080fd5b50565b6000815190506108dc816108b6565b92915050565b6000602082840312156108f8576108f761059e565b5b6000610906848285016108cd565b91505092915050565b60006040820190506109246000830185610713565b6109316020830184610754565b9392505050565b60007fff0000000000000000000000000000000000000000000000000000000000000082169050919050565b61096d81610938565b82525050565b60006060820190506109886000830186610713565b6109956020830185610713565b6109a26040830184610964565b949350505050565b60006040820190506109bf60008301856106e9565b6109cc602083018461085b565b939250505056fea264697066735822122047bfe8f00aae7adde06c617f11b60f214a3e2040c94392a34531087225d9129464736f6c63430008180033",
  "linkReferences": {},
  "deployedLinkReferences": {}
}